{"abi":[{"type":"constructor","inputs":[{"name":"factoryAddress","type":"address","internalType":"address"}],"stateMutability":"nonpayable"},{"type":"function","name":"addLiquidity","inputs":[{"name":"tokenA","type":"address","internalType":"address"},{"name":"tokenB","type":"address","internalType":"address"},{"name":"amountADesired","type":"uint256","internalType":"uint256"},{"name":"amountBDesired","type":"uint256","internalType":"uint256"},{"name":"amountAMin","type":"uint256","internalType":"uint256"},{"name":"amountBMin","type":"uint256","internalType":"uint256"},{"name":"to","type":"address","internalType":"address"}],"outputs":[{"name":"amountA","type":"uint256","internalType":"uint256"},{"name":"amountB","type":"uint256","internalType":"uint256"},{"name":"liquidity","type":"uint256","internalType":"uint256"}],"stateMutability":"nonpayable"},{"type":"function","name":"getAmountsIn","inputs":[{"name":"amountOut","type":"uint256","internalType":"uint256"},{"name":"path","type":"address[]","internalType":"address[]"}],"outputs":[{"name":"amounts","type":"uint256[]","internalType":"uint256[]"}],"stateMutability":"view"},{"type":"function","name":"getAmountsOut","inputs":[{"name":"amountIn","type":"uint256","internalType":"uint256"},{"name":"path","type":"address[]","internalType":"address[]"}],"outputs":[{"name":"amounts","type":"uint256[]","internalType":"uint256[]"}],"stateMutability":"view"},{"type":"function","name":"removeLiquidity","inputs":[{"name":"tokenA","type":"address","internalType":"address"},{"name":"tokenB","type":"address","internalType":"address"},{"name":"liquidity","type":"uint256","internalType":"uint256"},{"name":"amountAMin","type":"uint256","internalType":"uint256"},{"name":"amountBMin","type":"uint256","internalType":"uint256"},{"name":"to","type":"address","internalType":"address"}],"outputs":[{"name":"amountA","type":"uint256","internalType":"uint256"},{"name":"amountB","type":"uint256","internalType":"uint256"}],"stateMutability":"nonpayable"},{"type":"function","name":"swapExactTokensForTokens","inputs":[{"name":"amountIn","type":"uint256","internalType":"uint256"},{"name":"amountOutMin","type":"uint256","internalType":"uint256"},{"name":"path","type":"address[]","internalType":"address[]"},{"name":"to","type":"address","internalType":"address"}],"outputs":[{"name":"amounts","type":"uint256[]","internalType":"uint256[]"}],"stateMutability":"nonpayable"},{"type":"function","name":"swapTokensForExactTokens","inputs":[{"name":"amountOut","type":"uint256","internalType":"uint256"},{"name":"amountInMax","type":"uint256","internalType":"uint256"},{"name":"path","type":"address[]","internalType":"address[]"},{"name":"to","type":"address","internalType":"address"}],"outputs":[{"name":"amounts","type":"uint256[]","internalType":"uint256[]"}],"stateMutability":"nonpayable"},{"type":"error","name":"ExcessiveInputAmount","inputs":[]},{"type":"error","name":"InsufficientAAmount","inputs":[]},{"type":"error","name":"InsufficientBAmount","inputs":[]},{"type":"error","name":"InsufficientOutputAmount","inputs":[]},{"type":"error","name":"SafeTransferFailed","inputs":[]}],"bytecode":{"object":"0x6080604052348015600f57600080fd5b506040516133cf3803806133cf833981016040819052602c916050565b600080546001600160a01b0319166001600160a01b0392909216919091179055607e565b600060208284031215606157600080fd5b81516001600160a01b0381168114607757600080fd5b9392505050565b6133428061008d6000396000f3fe608060405234801561001057600080fd5b50600436106100625760003560e01c80631f00ca741461006757806342712a6714610090578063472b43f3146100a3578063c0e3ee6b146100b6578063ca3d6539146100de578063d06ca61f1461010c575b600080fd5b61007a610075366004610e75565b61011f565b6040516100879190610f25565b60405180910390f35b61007a61009e366004610f68565b6101b8565b61007a6100b1366004610f68565b610381565b6100c96100c4366004611004565b61045c565b60408051928352602083019190915201610087565b6100f16100ec36600461106b565b6105b1565b60408051938452602084019290925290820152606001610087565b61007a61011a366004610e75565b610779565b600054604051630c90945960e11b815260609173__$aa0f6d74cc66a72de64546b3a42ed3593c$__9163192128b29161016a916001600160a01b0390911690879087906004016110dd565b600060405180830381865af4158015610187573d6000803e3d6000fd5b505050506040513d6000823e601f3d908101601f191682016040526101af9190810190611143565b90505b92915050565b600054604051630c90945960e11b815260609173__$aa0f6d74cc66a72de64546b3a42ed3593c$__9163192128b291610205916001600160a01b03909116908a90899089906004016111d9565b600060405180830381865af4158015610222573d6000803e3d6000fd5b505050506040513d6000823e601f3d908101601f1916820160405261024a9190810190611143565b905084816000815181106102605761026061123f565b602002602001015111156102875760405163e1b0da4f60e01b815260040160405180910390fd5b6103398484600081811061029d5761029d61123f565b90506020020160208101906102b29190611255565b600080543391610319916001600160a01b03169089908990816102d7576102d761123f565b90506020020160208101906102ec9190611255565b898960018181106102ff576102ff61123f565b90506020020160208101906103149190611255565b6107c4565b8460008151811061032c5761032c61123f565b60200260200101516108ab565b610378818585808060200260200160405190810160405280939291908181526020018383602002808284376000920191909152508792506109a3915050565b95945050505050565b600054604051635dbdce3b60e11b815260609173__$aa0f6d74cc66a72de64546b3a42ed3593c$__9163bb7b9c76916103ce916001600160a01b03909116908a90899089906004016111d9565b600060405180830381865af41580156103eb573d6000803e3d6000fd5b505050506040513d6000823e601f3d908101601f191682016040526104139190810190611143565b9050848160018351610425919061128f565b815181106104355761043561123f565b60200260200101511015610287576040516342301c2360e01b815260040160405180910390fd5b6000805481908190610478906001600160a01b03168a8a6107c4565b6040516323b872dd60e01b81523360048201526001600160a01b03821660248201819052604482018a90529192506323b872dd906064016020604051808303816000875af11580156104ce573d6000803e3d6000fd5b505050506040513d601f19601f820116820180604052508101906104f291906112a2565b5060405163226bf2d160e21b81526001600160a01b0385811660048301528216906389afcb449060240160408051808303816000875af115801561053a573d6000803e3d6000fd5b505050506040513d601f19601f8201168201806040525081019061055e91906112c4565b90935091508583101561058457604051638dc525d160e01b815260040160405180910390fd5b848210156105a55760405163ef71d09160e01b815260040160405180910390fd5b50965096945050505050565b600080546040516334a2a5c360e11b81526001600160a01b038a811660048301528981166024830152839283928392909116906369454b8690604401602060405180830381865afa15801561060a573d6000803e3d6000fd5b505050506040513d601f19601f8201168201806040525081019061062e91906112e8565b6001600160a01b0316036106b6576000546040516364e329cb60e11b81526001600160a01b038c811660048301528b811660248301529091169063c9c65396906044016020604051808303816000875af1158015610690573d6000803e3d6000fd5b505050506040513d601f19601f820116820180604052508101906106b491906112e8565b505b6106c48a8a8a8a8a8a610b67565b60008054929550909350906106e3906001600160a01b03168c8c6107c4565b90506106f18b3383876108ab565b6106fd8a3383866108ab565b6040516335313c2160e11b81526001600160a01b038681166004830152821690636a627842906024016020604051808303816000875af1158015610745573d6000803e3d6000fd5b505050506040513d601f19601f820116820180604052508101906107699190611305565b9150509750975097945050505050565b600054604051635dbdce3b60e11b815260609173__$aa0f6d74cc66a72de64546b3a42ed3593c$__9163bb7b9c769161016a916001600160a01b0390911690879087906004016110dd565b60008060006107d38585610da4565b6040516bffffffffffffffffffffffff19606084811b8216602084015283901b16603482015291935091508690604801604051602081830303815290604052805190602001206040518060200161082990610dd5565b6020820181038252601f19601f8201166040525080519060200120604051602001610889939291906001600160f81b0319815260609390931b6bffffffffffffffffffffffff191660018401526015830191909152603582015260550190565b60408051601f1981840301815291905280516020909101209695505050505050565b6040516001600160a01b038481166024830152838116604483015260648201839052600091829187169060840160408051601f198184030181529181526020820180516001600160e01b03166323b872dd60e01b1790525161090d919061131e565b6000604051808303816000865af19150503d806000811461094a576040519150601f19603f3d011682016040523d82523d6000602084013e61094f565b606091505b509150915081158061097d575080511580159061097d57508080602001905181019061097b91906112a2565b155b1561099b5760405163fb7f507960e01b815260040160405180910390fd5b505050505050565b60005b600183516109b4919061128f565b811015610b61576000808483815181106109d0576109d061123f565b6020026020010151858460016109e6919061134d565b815181106109f6576109f661123f565b6020026020010151915091506000610a0e8383610da4565b509050600087610a1f86600161134d565b81518110610a2f57610a2f61123f565b60200260200101519050600080836001600160a01b0316866001600160a01b031614610a5d57826000610a61565b6000835b91509150600060028a51610a75919061128f565b8810610a815788610abb565b600054610abb906001600160a01b0316878c610a9e8c600261134d565b81518110610aae57610aae61123f565b60200260200101516107c4565b600054909150610ad5906001600160a01b031688886107c4565b60405163022c0d9f60e01b815260048101859052602481018490526001600160a01b0383811660448301526080606483015260006084830152919091169063022c0d9f9060a401600060405180830381600087803b158015610b3657600080fd5b505af1158015610b4a573d6000803e3d6000fd5b5050600190990198506109a6975050505050505050565b50505050565b60008054604051633274946160e01b81526001600160a01b0391821660048201528882166024820152908716604482015281908190819073__$aa0f6d74cc66a72de64546b3a42ed3593c$__906332749461906064016040805180830381865af4158015610bd9573d6000803e3d6000fd5b505050506040513d601f19601f82011682018060405250810190610bfd91906112c4565b91509150816000148015610c0f575080155b15610c1f57879350869250610d97565b604051632b58577b60e21b815260048101899052602481018390526044810182905260009073__$aa0f6d74cc66a72de64546b3a42ed3593c$__9063ad615dec90606401602060405180830381865af4158015610c80573d6000803e3d6000fd5b505050506040513d601f19601f82011682018060405250810190610ca49190611305565b9050878111610cd857858111610ccd5760405163ef71d09160e01b815260040160405180910390fd5b889450925082610d95565b604051632b58577b60e21b815260048101899052602481018390526044810184905260009073__$aa0f6d74cc66a72de64546b3a42ed3593c$__9063ad615dec90606401602060405180830381865af4158015610d39573d6000803e3d6000fd5b505050506040513d601f19601f82011682018060405250810190610d5d9190611305565b905089811115610d6f57610d6f611360565b878111610d8f57604051638dc525d160e01b815260040160405180910390fd5b94508793505b505b5050965096945050505050565b600080826001600160a01b0316846001600160a01b031610610dc7578284610dca565b83835b915091509250929050565b611f968061137783390190565b634e487b7160e01b600052604160045260246000fd5b604051601f8201601f1916810167ffffffffffffffff81118282101715610e2157610e21610de2565b604052919050565b600067ffffffffffffffff821115610e4357610e43610de2565b5060051b60200190565b6001600160a01b0381168114610e6257600080fd5b50565b8035610e7081610e4d565b919050565b60008060408385031215610e8857600080fd5b82359150602083013567ffffffffffffffff811115610ea657600080fd5b8301601f81018513610eb757600080fd5b8035610eca610ec582610e29565b610df8565b8082825260208201915060208360051b850101925087831115610eec57600080fd5b6020840193505b82841015610f17578335610f0681610e4d565b825260209384019390910190610ef3565b809450505050509250929050565b602080825282518282018190526000918401906040840190835b81811015610f5d578351835260209384019390920191600101610f3f565b509095945050505050565b600080600080600060808688031215610f8057600080fd5b8535945060208601359350604086013567ffffffffffffffff811115610fa557600080fd5b8601601f81018813610fb657600080fd5b803567ffffffffffffffff811115610fcd57600080fd5b8860208260051b8401011115610fe257600080fd5b60209190910193509150610ff860608701610e65565b90509295509295909350565b60008060008060008060c0878903121561101d57600080fd5b863561102881610e4d565b9550602087013561103881610e4d565b945060408701359350606087013592506080870135915060a087013561105d81610e4d565b809150509295509295509295565b600080600080600080600060e0888a03121561108657600080fd5b873561109181610e4d565b965060208801356110a181610e4d565b955060408801359450606088013593506080880135925060a0880135915060c08801356110cd81610e4d565b8091505092959891949750929550565b6001600160a01b0384168152602080820184905260606040830181905283519083018190526000918401906080840190835b818110156111365783516001600160a01b031683526020938401939092019160010161110f565b5090979650505050505050565b60006020828403121561115557600080fd5b815167ffffffffffffffff81111561116c57600080fd5b8201601f8101841361117d57600080fd5b805161118b610ec582610e29565b8082825260208201915060208360051b8501019250868311156111ad57600080fd5b6020840193505b828410156111cf5783518252602093840193909101906111b4565b9695505050505050565b6001600160a01b038516815260208101849052606060408201819052810182905260008360808301825b8581101561123357823561121681610e4d565b6001600160a01b0316825260209283019290910190600101611203565b50979650505050505050565b634e487b7160e01b600052603260045260246000fd5b60006020828403121561126757600080fd5b813561127281610e4d565b9392505050565b634e487b7160e01b600052601160045260246000fd5b818103818111156101b2576101b2611279565b6000602082840312156112b457600080fd5b8151801515811461127257600080fd5b600080604083850312156112d757600080fd5b505080516020909101519092909150565b6000602082840312156112fa57600080fd5b815161127281610e4d565b60006020828403121561131757600080fd5b5051919050565b6000825160005b8181101561133f5760208186018101518583015201611325565b506000920191825250919050565b808201808211156101b2576101b2611279565b634e487b7160e01b600052600160045260246000fdfe60e060405234801561001057600080fd5b506040518060400160405280600f81526020016e2d3ab734b9bbb0b82b19102830b4b960891b815250604051806040016040528060068152602001652d2aa724ab1960d11b8152506012826000908161006991906101cf565b50600161007683826101cf565b5060ff81166080524660a05261008a610096565b60c05250610302915050565b60007f8b73c3c69bb8fe3d512ecc4cf759cc79239f7b179b0ffacaa9a75d522b39400f60006040516100c8919061028d565b6040805191829003822060208301939093528101919091527fc89efdaa54c0f20c7adf612882df0950f5a951637e0307cdcb4c672f298b8bc660608201524660808201523060a082015260c00160405160208183030381529060405280519060200120905090565b634e487b7160e01b600052604160045260246000fd5b600181811c9082168061015a57607f821691505b60208210810361017a57634e487b7160e01b600052602260045260246000fd5b50919050565b601f8211156101ca57806000526020600020601f840160051c810160208510156101a75750805b601f840160051c820191505b818110156101c757600081556001016101b3565b50505b505050565b81516001600160401b038111156101e8576101e8610130565b6101fc816101f68454610146565b84610180565b6020601f82116001811461023057600083156102185750848201515b600019600385901b1c1916600184901b1784556101c7565b600084815260208120601f198516915b828110156102605787850151825560209485019460019092019101610240565b508482101561027e5786840151600019600387901b60f8161c191681555b50505050600190811b01905550565b600080835461029b81610146565b6001821680156102b257600181146102c7576102f7565b60ff19831686528115158202860193506102f7565b86600052602060002060005b838110156102ef578154888201526001909101906020016102d3565b505081860193505b509195945050505050565b60805160a05160c051611c6561033160003960006109b40152600061097f0152600061022b0152611c656000f3fe608060405234801561001057600080fd5b50600436106101425760003560e01c80635a3d5493116100b857806395d89b411161007c57806395d89b4114610307578063a9059cbb1461030f578063d21220a714610322578063d505accf14610335578063dd62ed3e14610348578063fff6cae91461037357600080fd5b80635a3d5493146102835780636a6278421461028c57806370a082311461029f5780637ecebe00146102bf57806389afcb44146102df57600080fd5b806318160ddd1161010a57806318160ddd146101fc57806323b872dd14610213578063313ce567146102265780633644e5151461025f578063485cc955146102675780635909c0d51461027a57600080fd5b8063022c0d9f1461014757806306fdde031461015c5780630902f1ac1461017a578063095ea7b3146101ae5780630dfe1681146101d1575b600080fd5b61015a6101553660046117a7565b61037b565b005b610164610776565b6040516101719190611861565b60405180910390f35b610182610804565b604080516001600160701b03948516815293909216602084015263ffffffff1690820152606001610171565b6101c16101bc366004611894565b61082e565b6040519015158152602001610171565b6006546101e4906001600160a01b031681565b6040516001600160a01b039091168152602001610171565b61020560025481565b604051908152602001610171565b6101c16102213660046118be565b61089b565b61024d7f000000000000000000000000000000000000000000000000000000000000000081565b60405160ff9091168152602001610171565b61020561097b565b61015a6102753660046118fb565b6109d6565b61020560095481565b610205600a5481565b61020561029a36600461192e565b610a44565b6102056102ad36600461192e565b60036020526000908152604090205481565b6102056102cd36600461192e565b60056020526000908152604090205481565b6102f26102ed36600461192e565b610c7f565b60408051928352602083019190915201610171565b610164610f5e565b6101c161031d366004611894565b610f6b565b6007546101e4906001600160a01b031681565b61015a610343366004611949565b610fd1565b6102056103563660046118fb565b600460209081526000928352604080842090915290825290205481565b61015a61121a565b600b5460ff161561038b57600080fd5b600b805460ff19166001179055841580156103a4575083155b156103c2576040516342301c2360e01b815260040160405180910390fd5b6000806103cd610804565b5091509150600080836001600160701b03168911806103f45750826001600160701b031688115b156104125760405163bb55fd2760e01b815260040160405180910390fd5b881561042f5760065461042f906001600160a01b0316888b611317565b871561044c5760075461044c906001600160a01b0316888a611317565b84156104b957604051630c68e5d560e41b81526001600160a01b0388169063c68e5d50906104869033908d908d908c908c906004016119bc565b600060405180830381600087803b1580156104a057600080fd5b505af11580156104b4573d6000803e3d6000fd5b505050505b6006546040516370a0823160e01b81523060048201526001600160a01b03909116906370a08231906024016020604051808303816000875af1158015610503573d6000803e3d6000fd5b505050506040513d601f19601f820116820180604052508101906105279190611a08565b6007546040516370a0823160e01b81523060048201529193506001600160a01b0316906370a08231906024016020604051808303816000875af1158015610572573d6000803e3d6000fd5b505050506040513d601f19601f820116820180604052508101906105969190611a08565b6008549091506000906105b3908b906001600160701b0316611a37565b83116105c05760006105e1565b6008546105d7908b906001600160701b0316611a37565b6105e19084611a37565b600854909150600090610605908b90600160701b90046001600160701b0316611a37565b831161061257600061063a565b600854610630908b90600160701b90046001600160701b0316611a37565b61063a9084611a37565b905081158015610648575080155b156106665760405163098fb56160e01b815260040160405180910390fd5b6000610673836003611a4a565b61067f866103e8611a4a565b6106899190611a37565b90506000610698836003611a4a565b6106a4866103e8611a4a565b6106ae9190611a37565b90506106c66001600160701b03808916908a16611a4a565b6106d390620f4240611a4a565b6106dd8284611a4a565b10156106fc57604051632f62f0d960e21b815260040160405180910390fd5b505061070a84848888611406565b60408051838152602081018390529081018c9052606081018b90526001600160a01b038a169033907fd78ad95fa46c994b6551d0da85fc275fe613ce37657fb8d5e3d130840159d8229060800160405180910390a35050600b805460ff19169055505050505050505050565b6000805461078390611a61565b80601f01602080910402602001604051908101604052809291908181526020018280546107af90611a61565b80156107fc5780601f106107d1576101008083540402835291602001916107fc565b820191906000526020600020905b8154815290600101906020018083116107df57829003601f168201915b505050505081565b6008546001600160701b0380821692600160701b830490911691600160e01b900463ffffffff1690565b3360008181526004602090815260408083206001600160a01b038716808552925280832085905551919290917f8c5be1e5ebec7d5bd14f71427d1e84f3dd0314c0f7b2291e5b200ac8c7c3b925906108899086815260200190565b60405180910390a35060015b92915050565b6001600160a01b038316600090815260046020908152604080832033845290915281205460001981146108f7576108d28382611a37565b6001600160a01b03861660009081526004602090815260408083203384529091529020555b6001600160a01b0385166000908152600360205260408120805485929061091f908490611a37565b90915550506001600160a01b0380851660008181526003602052604090819020805487019055519091871690600080516020611c10833981519152906109689087815260200190565b60405180910390a3506001949350505050565b60007f000000000000000000000000000000000000000000000000000000000000000046146109b1576109ac611584565b905090565b507f000000000000000000000000000000000000000000000000000000000000000090565b6006546001600160a01b03161515806109f957506007546001600160a01b031615155b15610a165760405162dc149f60e41b815260040160405180910390fd5b600680546001600160a01b039384166001600160a01b03199182161790915560078054929093169116179055565b6000806000610a51610804565b506006546040516370a0823160e01b81523060048201529294509092506000916001600160a01b03909116906370a08231906024016020604051808303816000875af1158015610aa5573d6000803e3d6000fd5b505050506040513d601f19601f82011682018060405250810190610ac99190611a08565b6007546040516370a0823160e01b81523060048201529192506000916001600160a01b03909116906370a08231906024016020604051808303816000875af1158015610b19573d6000803e3d6000fd5b505050506040513d601f19601f82011682018060405250810190610b3d9190611a08565b90506000610b546001600160701b03861684611a37565b90506000610b6b6001600160701b03861684611a37565b9050600254600003610baa576103e8610b8c610b878385611a4a565b61161e565b610b969190611a37565b9650610ba560006103e861168e565b610bf9565b610bf6866001600160701b031660025484610bc59190611a4a565b610bcf9190611aab565b866001600160701b031660025484610be79190611a4a565b610bf19190611aab565b6116e8565b96505b60008711610c1a57604051633489be7560e21b815260040160405180910390fd5b610c24888861168e565b610c3084848888611406565b60408051838152602081018390526001600160a01b038a16917f4c209b5fc8ad50758f13e2e1088ba56a560dff690a1c6fef26394f4c03821c4f910160405180910390a2505050505050919050565b6006546040516370a0823160e01b8152306004820152600091829182916001600160a01b0316906370a08231906024016020604051808303816000875af1158015610cce573d6000803e3d6000fd5b505050506040513d601f19601f82011682018060405250810190610cf29190611a08565b6007546040516370a0823160e01b81523060048201529192506000916001600160a01b03909116906370a08231906024016020604051808303816000875af1158015610d42573d6000803e3d6000fd5b505050506040513d601f19601f82011682018060405250810190610d669190611a08565b3060009081526003602052604090205460025491925090610d878483611a4a565b610d919190611aab565b600254909550610da18383611a4a565b610dab9190611aab565b9350841580610db8575083155b15610dd65760405163749383ad60e01b815260040160405180910390fd5b610de03082611700565b600654610df7906001600160a01b03168787611317565b600754610e0e906001600160a01b03168786611317565b6006546040516370a0823160e01b81523060048201526001600160a01b03909116906370a08231906024016020604051808303816000875af1158015610e58573d6000803e3d6000fd5b505050506040513d601f19601f82011682018060405250810190610e7c9190611a08565b6007546040516370a0823160e01b81523060048201529194506001600160a01b0316906370a08231906024016020604051808303816000875af1158015610ec7573d6000803e3d6000fd5b505050506040513d601f19601f82011682018060405250810190610eeb9190611a08565b9150600080610ef8610804565b5091509150610f0985858484611406565b60408051888152602081018890526001600160a01b038a1681830152905133917fdccd412f0b1252819cb1fd330b93224ca42612892bb3f4f789976e6d81936496919081900360600190a25050505050915091565b6001805461078390611a61565b33600090815260036020526040812080548391908390610f8c908490611a37565b90915550506001600160a01b03831660008181526003602052604090819020805485019055513390600080516020611c10833981519152906108899086815260200190565b428410156110265760405162461bcd60e51b815260206004820152601760248201527f5045524d49545f444541444c494e455f4558504952454400000000000000000060448201526064015b60405180910390fd5b6000600161103261097b565b6001600160a01b038a811660008181526005602090815260409182902080546001810190915582517f6e71edae12b1b97f4d1f60370fef10105fa2faae0126114a169c64845d6126c98184015280840194909452938d166060840152608083018c905260a083019390935260c08083018b90528151808403909101815260e08301909152805192019190912061190160f01b6101008301526101028201929092526101228101919091526101420160408051601f198184030181528282528051602091820120600084529083018083525260ff871690820152606081018590526080810184905260a0016020604051602081039080840390855afa15801561113e573d6000803e3d6000fd5b5050604051601f1901519150506001600160a01b038116158015906111745750876001600160a01b0316816001600160a01b0316145b6111b15760405162461bcd60e51b815260206004820152600e60248201526d24a72b20a624a22fa9a4a3a722a960911b604482015260640161101d565b6001600160a01b0390811660009081526004602090815260408083208a8516808552908352928190208990555188815291928a16917f8c5be1e5ebec7d5bd14f71427d1e84f3dd0314c0f7b2291e5b200ac8c7c3b925910160405180910390a350505050505050565b600080611225610804565b506006546040516370a0823160e01b8152306004820152929450909250611313916001600160a01b03909116906370a08231906024016020604051808303816000875af115801561127a573d6000803e3d6000fd5b505050506040513d601f19601f8201168201806040525081019061129e9190611a08565b6007546040516370a0823160e01b81523060048201526001600160a01b03909116906370a08231906024016020604051808303816000875af11580156112e8573d6000803e3d6000fd5b505050506040513d601f19601f8201168201806040525081019061130c9190611a08565b8484611406565b5050565b6040516001600160a01b03838116602483015260448201839052600091829186169060640160408051601f198184030181529181526020820180516001600160e01b031663a9059cbb60e01b179052516113719190611abf565b6000604051808303816000865af19150503d80600081146113ae576040519150601f19603f3d011682016040523d82523d6000602084013e6113b3565b606091505b50915091508115806113e157508051158015906113e15750808060200190518101906113df9190611adb565b155b156113ff576040516312171d8360e31b815260040160405180910390fd5b5050505050565b6001600160701b0384118061142157506001600160701b0383115b1561143f576040516389560ca160e01b815260040160405180910390fd5b60085463ffffffff600160e01b909104811642039081161580159061146d57506000836001600160701b0316115b801561148257506000826001600160701b0316115b156114ed578063ffffffff166114aa8461149b85611762565b6001600160e01b03169061177b565b600980546001600160e01b03929092169290920201905563ffffffff81166114d58361149b86611762565b600a80546001600160e01b0392909216929092020190555b506008805463ffffffff4216600160e01b026001600160e01b036001600160701b03878116600160701b9081026001600160e01b03199095168a83161794909417918216831794859055604080519382169282169290921783529290930490911660208201527fcf2aa50876cdfbb541206f89af0ee78d44a2abf8d328e37fa4917f982149848a910160405180910390a150505050565b60007f8b73c3c69bb8fe3d512ecc4cf759cc79239f7b179b0ffacaa9a75d522b39400f60006040516115b69190611afd565b6040805191829003822060208301939093528101919091527fc89efdaa54c0f20c7adf612882df0950f5a951637e0307cdcb4c672f298b8bc660608201524660808201523060a082015260c00160405160208183030381529060405280519060200120905090565b6000600382111561167f5750806000611638600283611aab565b611643906001611b9c565b90505b818110156116795790508060028161165e8186611aab565b6116689190611b9c565b6116729190611aab565b9050611646565b50919050565b8115611689575060015b919050565b80600260008282546116a09190611b9c565b90915550506001600160a01b038216600081815260036020908152604080832080548601905551848152600080516020611c1083398151915291015b60405180910390a35050565b60008183106116f757816116f9565b825b9392505050565b6001600160a01b03821660009081526003602052604081208054839290611728908490611a37565b90915550506002805482900390556040518181526000906001600160a01b03841690600080516020611c10833981519152906020016116dc565b6000610895600160701b6001600160701b038416611baf565b60006116f96001600160701b03831684611be0565b80356001600160a01b038116811461168957600080fd5b6000806000806000608086880312156117bf57600080fd5b85359450602086013593506117d660408701611790565b9250606086013567ffffffffffffffff8111156117f257600080fd5b8601601f8101881361180357600080fd5b803567ffffffffffffffff81111561181a57600080fd5b88602082840101111561182c57600080fd5b959894975092955050506020019190565b60005b83811015611858578181015183820152602001611840565b50506000910152565b602081526000825180602084015261188081604085016020870161183d565b601f01601f19169190910160400192915050565b600080604083850312156118a757600080fd5b6118b083611790565b946020939093013593505050565b6000806000606084860312156118d357600080fd5b6118dc84611790565b92506118ea60208501611790565b929592945050506040919091013590565b6000806040838503121561190e57600080fd5b61191783611790565b915061192560208401611790565b90509250929050565b60006020828403121561194057600080fd5b6116f982611790565b600080600080600080600060e0888a03121561196457600080fd5b61196d88611790565b965061197b60208901611790565b95506040880135945060608801359350608088013560ff8116811461199f57600080fd5b9699959850939692959460a0840135945060c09093013592915050565b60018060a01b038616815284602082015283604082015260806060820152816080820152818360a0830137600081830160a090810191909152601f909201601f19160101949350505050565b600060208284031215611a1a57600080fd5b5051919050565b634e487b7160e01b600052601160045260246000fd5b8181038181111561089557610895611a21565b808202811582820484141761089557610895611a21565b600181811c90821680611a7557607f821691505b60208210810361167957634e487b7160e01b600052602260045260246000fd5b634e487b7160e01b600052601260045260246000fd5b600082611aba57611aba611a95565b500490565b60008251611ad181846020870161183d565b9190910192915050565b600060208284031215611aed57600080fd5b815180151581146116f957600080fd5b6000808354818160011c90506001821680611b1957607f821691505b602082108103611b3757634e487b7160e01b84526022600452602484fd5b808015611b4b5760018114611b6057611b90565b60ff1984168752821515830287019450611b90565b60008881526020902060005b84811015611b8857815489820152600190910190602001611b6c565b505082870194505b50929695505050505050565b8082018082111561089557610895611a21565b6001600160e01b03818116838216818102909216918183048114821517611bd857611bd8611a21565b505092915050565b60006001600160e01b03831680611bf957611bf9611a95565b6001600160e01b0392909216919091049291505056feddf252ad1be2c89b69c2b068fc378daa952ba7f163c4a11628f55a4df523b3efa2646970667358221220e5ad7f4f82edb9d57be7c223e90576585f1f789230d6899b6b55b85eaa8d5f6664736f6c634300081b0033a2646970667358221220355afd6a69f455c188332392103c1cedb79a74ec127023567da89555630652ba64736f6c634300081b0033","linkReferences":{"src/ZuniswapV2Library.sol":{"ZuniswapV2Library":[{"start":449,"length":20},{"start":602,"length":20},{"start":1059,"length":20},{"start":2075,"length":20},{"start":3117,"length":20},{"start":3283,"length":20},{"start":3468,"length":20}]}}},"methodIdentifiers":{"addLiquidity(address,address,uint256,uint256,uint256,uint256,address)":"ca3d6539","getAmountsIn(uint256,address[])":"1f00ca74","getAmountsOut(uint256,address[])":"d06ca61f","removeLiquidity(address,address,uint256,uint256,uint256,address)":"c0e3ee6b","swapExactTokensForTokens(uint256,uint256,address[],address)":"472b43f3","swapTokensForExactTokens(uint256,uint256,address[],address)":"42712a67"},"id":35}