{"abi":[{"type":"constructor","inputs":[],"stateMutability":"nonpayable"},{"type":"function","name":"DOMAIN_SEPARATOR","inputs":[],"outputs":[{"name":"","type":"bytes32","internalType":"bytes32"}],"stateMutability":"view"},{"type":"function","name":"allowance","inputs":[{"name":"","type":"address","internalType":"address"},{"name":"","type":"address","internalType":"address"}],"outputs":[{"name":"","type":"uint256","internalType":"uint256"}],"stateMutability":"view"},{"type":"function","name":"approve","inputs":[{"name":"spender","type":"address","internalType":"address"},{"name":"amount","type":"uint256","internalType":"uint256"}],"outputs":[{"name":"","type":"bool","internalType":"bool"}],"stateMutability":"nonpayable"},{"type":"function","name":"balanceOf","inputs":[{"name":"","type":"address","internalType":"address"}],"outputs":[{"name":"","type":"uint256","internalType":"uint256"}],"stateMutability":"view"},{"type":"function","name":"burn","inputs":[{"name":"to","type":"address","internalType":"address"}],"outputs":[{"name":"amount0","type":"uint256","internalType":"uint256"},{"name":"amount1","type":"uint256","internalType":"uint256"}],"stateMutability":"nonpayable"},{"type":"function","name":"decimals","inputs":[],"outputs":[{"name":"","type":"uint8","internalType":"uint8"}],"stateMutability":"view"},{"type":"function","name":"getReserves","inputs":[],"outputs":[{"name":"","type":"uint112","internalType":"uint112"},{"name":"","type":"uint112","internalType":"uint112"},{"name":"","type":"uint32","internalType":"uint32"}],"stateMutability":"view"},{"type":"function","name":"initialize","inputs":[{"name":"token0_","type":"address","internalType":"address"},{"name":"token1_","type":"address","internalType":"address"}],"outputs":[],"stateMutability":"nonpayable"},{"type":"function","name":"mint","inputs":[{"name":"to","type":"address","internalType":"address"}],"outputs":[{"name":"liquidity","type":"uint256","internalType":"uint256"}],"stateMutability":"nonpayable"},{"type":"function","name":"name","inputs":[],"outputs":[{"name":"","type":"string","internalType":"string"}],"stateMutability":"view"},{"type":"function","name":"nonces","inputs":[{"name":"","type":"address","internalType":"address"}],"outputs":[{"name":"","type":"uint256","internalType":"uint256"}],"stateMutability":"view"},{"type":"function","name":"permit","inputs":[{"name":"owner","type":"address","internalType":"address"},{"name":"spender","type":"address","internalType":"address"},{"name":"value","type":"uint256","internalType":"uint256"},{"name":"deadline","type":"uint256","internalType":"uint256"},{"name":"v","type":"uint8","internalType":"uint8"},{"name":"r","type":"bytes32","internalType":"bytes32"},{"name":"s","type":"bytes32","internalType":"bytes32"}],"outputs":[],"stateMutability":"nonpayable"},{"type":"function","name":"price0CumulativeLast","inputs":[],"outputs":[{"name":"","type":"uint256","internalType":"uint256"}],"stateMutability":"view"},{"type":"function","name":"price1CumulativeLast","inputs":[],"outputs":[{"name":"","type":"uint256","internalType":"uint256"}],"stateMutability":"view"},{"type":"function","name":"swap","inputs":[{"name":"amount0Out","type":"uint256","internalType":"uint256"},{"name":"amount1Out","type":"uint256","internalType":"uint256"},{"name":"to","type":"address","internalType":"address"},{"name":"data","type":"bytes","internalType":"bytes"}],"outputs":[],"stateMutability":"nonpayable"},{"type":"function","name":"symbol","inputs":[],"outputs":[{"name":"","type":"string","internalType":"string"}],"stateMutability":"view"},{"type":"function","name":"sync","inputs":[],"outputs":[],"stateMutability":"nonpayable"},{"type":"function","name":"token0","inputs":[],"outputs":[{"name":"","type":"address","internalType":"address"}],"stateMutability":"view"},{"type":"function","name":"token1","inputs":[],"outputs":[{"name":"","type":"address","internalType":"address"}],"stateMutability":"view"},{"type":"function","name":"totalSupply","inputs":[],"outputs":[{"name":"","type":"uint256","internalType":"uint256"}],"stateMutability":"view"},{"type":"function","name":"transfer","inputs":[{"name":"to","type":"address","internalType":"address"},{"name":"amount","type":"uint256","internalType":"uint256"}],"outputs":[{"name":"","type":"bool","internalType":"bool"}],"stateMutability":"nonpayable"},{"type":"function","name":"transferFrom","inputs":[{"name":"from","type":"address","internalType":"address"},{"name":"to","type":"address","internalType":"address"},{"name":"amount","type":"uint256","internalType":"uint256"}],"outputs":[{"name":"","type":"bool","internalType":"bool"}],"stateMutability":"nonpayable"},{"type":"event","name":"Approval","inputs":[{"name":"owner","type":"address","indexed":true,"internalType":"address"},{"name":"spender","type":"address","indexed":true,"internalType":"address"},{"name":"amount","type":"uint256","indexed":false,"internalType":"uint256"}],"anonymous":false},{"type":"event","name":"Burn","inputs":[{"name":"sender","type":"address","indexed":true,"internalType":"address"},{"name":"amount0","type":"uint256","indexed":false,"internalType":"uint256"},{"name":"amount1","type":"uint256","indexed":false,"internalType":"uint256"},{"name":"to","type":"address","indexed":false,"internalType":"address"}],"anonymous":false},{"type":"event","name":"Mint","inputs":[{"name":"sender","type":"address","indexed":true,"internalType":"address"},{"name":"amount0","type":"uint256","indexed":false,"internalType":"uint256"},{"name":"amount1","type":"uint256","indexed":false,"internalType":"uint256"}],"anonymous":false},{"type":"event","name":"Swap","inputs":[{"name":"sender","type":"address","indexed":true,"internalType":"address"},{"name":"amount0In","type":"uint256","indexed":false,"internalType":"uint256"},{"name":"amount1In","type":"uint256","indexed":false,"internalType":"uint256"},{"name":"amount0Out","type":"uint256","indexed":false,"internalType":"uint256"},{"name":"amount1Out","type":"uint256","indexed":false,"internalType":"uint256"},{"name":"to","type":"address","indexed":true,"internalType":"address"}],"anonymous":false},{"type":"event","name":"Sync","inputs":[{"name":"reserve0","type":"uint256","indexed":false,"internalType":"uint256"},{"name":"reserve1","type":"uint256","indexed":false,"internalType":"uint256"}],"anonymous":false},{"type":"event","name":"Transfer","inputs":[{"name":"from","type":"address","indexed":true,"internalType":"address"},{"name":"to","type":"address","indexed":true,"internalType":"address"},{"name":"amount","type":"uint256","indexed":false,"internalType":"uint256"}],"anonymous":false},{"type":"error","name":"AlreadyInitialized","inputs":[]},{"type":"error","name":"BalanceOverflow","inputs":[]},{"type":"error","name":"InsufficientInputAmount","inputs":[]},{"type":"error","name":"InsufficientLiquidity","inputs":[]},{"type":"error","name":"InsufficientLiquidityBurned","inputs":[]},{"type":"error","name":"InsufficientLiquidityMinted","inputs":[]},{"type":"error","name":"InsufficientOutputAmount","inputs":[]},{"type":"error","name":"InvalidK","inputs":[]},{"type":"error","name":"TransferFailed","inputs":[]}],"bytecode":{"object":"0x60e060405234801561001057600080fd5b506040518060400160405280600f81526020016e2d3ab734b9bbb0b82b19102830b4b960891b815250604051806040016040528060068152602001652d2aa724ab1960d11b8152506012826000908161006991906101cf565b50600161007683826101cf565b5060ff81166080524660a05261008a610096565b60c05250610302915050565b60007f8b73c3c69bb8fe3d512ecc4cf759cc79239f7b179b0ffacaa9a75d522b39400f60006040516100c8919061028d565b6040805191829003822060208301939093528101919091527fc89efdaa54c0f20c7adf612882df0950f5a951637e0307cdcb4c672f298b8bc660608201524660808201523060a082015260c00160405160208183030381529060405280519060200120905090565b634e487b7160e01b600052604160045260246000fd5b600181811c9082168061015a57607f821691505b60208210810361017a57634e487b7160e01b600052602260045260246000fd5b50919050565b601f8211156101ca57806000526020600020601f840160051c810160208510156101a75750805b601f840160051c820191505b818110156101c757600081556001016101b3565b50505b505050565b81516001600160401b038111156101e8576101e8610130565b6101fc816101f68454610146565b84610180565b6020601f82116001811461023057600083156102185750848201515b600019600385901b1c1916600184901b1784556101c7565b600084815260208120601f198516915b828110156102605787850151825560209485019460019092019101610240565b508482101561027e5786840151600019600387901b60f8161c191681555b50505050600190811b01905550565b600080835461029b81610146565b6001821680156102b257600181146102c7576102f7565b60ff19831686528115158202860193506102f7565b86600052602060002060005b838110156102ef578154888201526001909101906020016102d3565b505081860193505b509195945050505050565b60805160a05160c051611c6561033160003960006109b40152600061097f0152600061022b0152611c656000f3fe608060405234801561001057600080fd5b50600436106101425760003560e01c80635a3d5493116100b857806395d89b411161007c57806395d89b4114610307578063a9059cbb1461030f578063d21220a714610322578063d505accf14610335578063dd62ed3e14610348578063fff6cae91461037357600080fd5b80635a3d5493146102835780636a6278421461028c57806370a082311461029f5780637ecebe00146102bf57806389afcb44146102df57600080fd5b806318160ddd1161010a57806318160ddd146101fc57806323b872dd14610213578063313ce567146102265780633644e5151461025f578063485cc955146102675780635909c0d51461027a57600080fd5b8063022c0d9f1461014757806306fdde031461015c5780630902f1ac1461017a578063095ea7b3146101ae5780630dfe1681146101d1575b600080fd5b61015a6101553660046117a7565b61037b565b005b610164610776565b6040516101719190611861565b60405180910390f35b610182610804565b604080516001600160701b03948516815293909216602084015263ffffffff1690820152606001610171565b6101c16101bc366004611894565b61082e565b6040519015158152602001610171565b6006546101e4906001600160a01b031681565b6040516001600160a01b039091168152602001610171565b61020560025481565b604051908152602001610171565b6101c16102213660046118be565b61089b565b61024d7f000000000000000000000000000000000000000000000000000000000000000081565b60405160ff9091168152602001610171565b61020561097b565b61015a6102753660046118fb565b6109d6565b61020560095481565b610205600a5481565b61020561029a36600461192e565b610a44565b6102056102ad36600461192e565b60036020526000908152604090205481565b6102056102cd36600461192e565b60056020526000908152604090205481565b6102f26102ed36600461192e565b610c7f565b60408051928352602083019190915201610171565b610164610f5e565b6101c161031d366004611894565b610f6b565b6007546101e4906001600160a01b031681565b61015a610343366004611949565b610fd1565b6102056103563660046118fb565b600460209081526000928352604080842090915290825290205481565b61015a61121a565b600b5460ff161561038b57600080fd5b600b805460ff19166001179055841580156103a4575083155b156103c2576040516342301c2360e01b815260040160405180910390fd5b6000806103cd610804565b5091509150600080836001600160701b03168911806103f45750826001600160701b031688115b156104125760405163bb55fd2760e01b815260040160405180910390fd5b881561042f5760065461042f906001600160a01b0316888b611317565b871561044c5760075461044c906001600160a01b0316888a611317565b84156104b957604051630c68e5d560e41b81526001600160a01b0388169063c68e5d50906104869033908d908d908c908c906004016119bc565b600060405180830381600087803b1580156104a057600080fd5b505af11580156104b4573d6000803e3d6000fd5b505050505b6006546040516370a0823160e01b81523060048201526001600160a01b03909116906370a08231906024016020604051808303816000875af1158015610503573d6000803e3d6000fd5b505050506040513d601f19601f820116820180604052508101906105279190611a08565b6007546040516370a0823160e01b81523060048201529193506001600160a01b0316906370a08231906024016020604051808303816000875af1158015610572573d6000803e3d6000fd5b505050506040513d601f19601f820116820180604052508101906105969190611a08565b6008549091506000906105b3908b906001600160701b0316611a37565b83116105c05760006105e1565b6008546105d7908b906001600160701b0316611a37565b6105e19084611a37565b600854909150600090610605908b90600160701b90046001600160701b0316611a37565b831161061257600061063a565b600854610630908b90600160701b90046001600160701b0316611a37565b61063a9084611a37565b905081158015610648575080155b156106665760405163098fb56160e01b815260040160405180910390fd5b6000610673836003611a4a565b61067f866103e8611a4a565b6106899190611a37565b90506000610698836003611a4a565b6106a4866103e8611a4a565b6106ae9190611a37565b90506106c66001600160701b03808916908a16611a4a565b6106d390620f4240611a4a565b6106dd8284611a4a565b10156106fc57604051632f62f0d960e21b815260040160405180910390fd5b505061070a84848888611406565b60408051838152602081018390529081018c9052606081018b90526001600160a01b038a169033907fd78ad95fa46c994b6551d0da85fc275fe613ce37657fb8d5e3d130840159d8229060800160405180910390a35050600b805460ff19169055505050505050505050565b6000805461078390611a61565b80601f01602080910402602001604051908101604052809291908181526020018280546107af90611a61565b80156107fc5780601f106107d1576101008083540402835291602001916107fc565b820191906000526020600020905b8154815290600101906020018083116107df57829003601f168201915b505050505081565b6008546001600160701b0380821692600160701b830490911691600160e01b900463ffffffff1690565b3360008181526004602090815260408083206001600160a01b038716808552925280832085905551919290917f8c5be1e5ebec7d5bd14f71427d1e84f3dd0314c0f7b2291e5b200ac8c7c3b925906108899086815260200190565b60405180910390a35060015b92915050565b6001600160a01b038316600090815260046020908152604080832033845290915281205460001981146108f7576108d28382611a37565b6001600160a01b03861660009081526004602090815260408083203384529091529020555b6001600160a01b0385166000908152600360205260408120805485929061091f908490611a37565b90915550506001600160a01b0380851660008181526003602052604090819020805487019055519091871690600080516020611c10833981519152906109689087815260200190565b60405180910390a3506001949350505050565b60007f000000000000000000000000000000000000000000000000000000000000000046146109b1576109ac611584565b905090565b507f000000000000000000000000000000000000000000000000000000000000000090565b6006546001600160a01b03161515806109f957506007546001600160a01b031615155b15610a165760405162dc149f60e41b815260040160405180910390fd5b600680546001600160a01b039384166001600160a01b03199182161790915560078054929093169116179055565b6000806000610a51610804565b506006546040516370a0823160e01b81523060048201529294509092506000916001600160a01b03909116906370a08231906024016020604051808303816000875af1158015610aa5573d6000803e3d6000fd5b505050506040513d601f19601f82011682018060405250810190610ac99190611a08565b6007546040516370a0823160e01b81523060048201529192506000916001600160a01b03909116906370a08231906024016020604051808303816000875af1158015610b19573d6000803e3d6000fd5b505050506040513d601f19601f82011682018060405250810190610b3d9190611a08565b90506000610b546001600160701b03861684611a37565b90506000610b6b6001600160701b03861684611a37565b9050600254600003610baa576103e8610b8c610b878385611a4a565b61161e565b610b969190611a37565b9650610ba560006103e861168e565b610bf9565b610bf6866001600160701b031660025484610bc59190611a4a565b610bcf9190611aab565b866001600160701b031660025484610be79190611a4a565b610bf19190611aab565b6116e8565b96505b60008711610c1a57604051633489be7560e21b815260040160405180910390fd5b610c24888861168e565b610c3084848888611406565b60408051838152602081018390526001600160a01b038a16917f4c209b5fc8ad50758f13e2e1088ba56a560dff690a1c6fef26394f4c03821c4f910160405180910390a2505050505050919050565b6006546040516370a0823160e01b8152306004820152600091829182916001600160a01b0316906370a08231906024016020604051808303816000875af1158015610cce573d6000803e3d6000fd5b505050506040513d601f19601f82011682018060405250810190610cf29190611a08565b6007546040516370a0823160e01b81523060048201529192506000916001600160a01b03909116906370a08231906024016020604051808303816000875af1158015610d42573d6000803e3d6000fd5b505050506040513d601f19601f82011682018060405250810190610d669190611a08565b3060009081526003602052604090205460025491925090610d878483611a4a565b610d919190611aab565b600254909550610da18383611a4a565b610dab9190611aab565b9350841580610db8575083155b15610dd65760405163749383ad60e01b815260040160405180910390fd5b610de03082611700565b600654610df7906001600160a01b03168787611317565b600754610e0e906001600160a01b03168786611317565b6006546040516370a0823160e01b81523060048201526001600160a01b03909116906370a08231906024016020604051808303816000875af1158015610e58573d6000803e3d6000fd5b505050506040513d601f19601f82011682018060405250810190610e7c9190611a08565b6007546040516370a0823160e01b81523060048201529194506001600160a01b0316906370a08231906024016020604051808303816000875af1158015610ec7573d6000803e3d6000fd5b505050506040513d601f19601f82011682018060405250810190610eeb9190611a08565b9150600080610ef8610804565b5091509150610f0985858484611406565b60408051888152602081018890526001600160a01b038a1681830152905133917fdccd412f0b1252819cb1fd330b93224ca42612892bb3f4f789976e6d81936496919081900360600190a25050505050915091565b6001805461078390611a61565b33600090815260036020526040812080548391908390610f8c908490611a37565b90915550506001600160a01b03831660008181526003602052604090819020805485019055513390600080516020611c10833981519152906108899086815260200190565b428410156110265760405162461bcd60e51b815260206004820152601760248201527f5045524d49545f444541444c494e455f4558504952454400000000000000000060448201526064015b60405180910390fd5b6000600161103261097b565b6001600160a01b038a811660008181526005602090815260409182902080546001810190915582517f6e71edae12b1b97f4d1f60370fef10105fa2faae0126114a169c64845d6126c98184015280840194909452938d166060840152608083018c905260a083019390935260c08083018b90528151808403909101815260e08301909152805192019190912061190160f01b6101008301526101028201929092526101228101919091526101420160408051601f198184030181528282528051602091820120600084529083018083525260ff871690820152606081018590526080810184905260a0016020604051602081039080840390855afa15801561113e573d6000803e3d6000fd5b5050604051601f1901519150506001600160a01b038116158015906111745750876001600160a01b0316816001600160a01b0316145b6111b15760405162461bcd60e51b815260206004820152600e60248201526d24a72b20a624a22fa9a4a3a722a960911b604482015260640161101d565b6001600160a01b0390811660009081526004602090815260408083208a8516808552908352928190208990555188815291928a16917f8c5be1e5ebec7d5bd14f71427d1e84f3dd0314c0f7b2291e5b200ac8c7c3b925910160405180910390a350505050505050565b600080611225610804565b506006546040516370a0823160e01b8152306004820152929450909250611313916001600160a01b03909116906370a08231906024016020604051808303816000875af115801561127a573d6000803e3d6000fd5b505050506040513d601f19601f8201168201806040525081019061129e9190611a08565b6007546040516370a0823160e01b81523060048201526001600160a01b03909116906370a08231906024016020604051808303816000875af11580156112e8573d6000803e3d6000fd5b505050506040513d601f19601f8201168201806040525081019061130c9190611a08565b8484611406565b5050565b6040516001600160a01b03838116602483015260448201839052600091829186169060640160408051601f198184030181529181526020820180516001600160e01b031663a9059cbb60e01b179052516113719190611abf565b6000604051808303816000865af19150503d80600081146113ae576040519150601f19603f3d011682016040523d82523d6000602084013e6113b3565b606091505b50915091508115806113e157508051158015906113e15750808060200190518101906113df9190611adb565b155b156113ff576040516312171d8360e31b815260040160405180910390fd5b5050505050565b6001600160701b0384118061142157506001600160701b0383115b1561143f576040516389560ca160e01b815260040160405180910390fd5b60085463ffffffff600160e01b909104811642039081161580159061146d57506000836001600160701b0316115b801561148257506000826001600160701b0316115b156114ed578063ffffffff166114aa8461149b85611762565b6001600160e01b03169061177b565b600980546001600160e01b03929092169290920201905563ffffffff81166114d58361149b86611762565b600a80546001600160e01b0392909216929092020190555b506008805463ffffffff4216600160e01b026001600160e01b036001600160701b03878116600160701b9081026001600160e01b03199095168a83161794909417918216831794859055604080519382169282169290921783529290930490911660208201527fcf2aa50876cdfbb541206f89af0ee78d44a2abf8d328e37fa4917f982149848a910160405180910390a150505050565b60007f8b73c3c69bb8fe3d512ecc4cf759cc79239f7b179b0ffacaa9a75d522b39400f60006040516115b69190611afd565b6040805191829003822060208301939093528101919091527fc89efdaa54c0f20c7adf612882df0950f5a951637e0307cdcb4c672f298b8bc660608201524660808201523060a082015260c00160405160208183030381529060405280519060200120905090565b6000600382111561167f5750806000611638600283611aab565b611643906001611b9c565b90505b818110156116795790508060028161165e8186611aab565b6116689190611b9c565b6116729190611aab565b9050611646565b50919050565b8115611689575060015b919050565b80600260008282546116a09190611b9c565b90915550506001600160a01b038216600081815260036020908152604080832080548601905551848152600080516020611c1083398151915291015b60405180910390a35050565b60008183106116f757816116f9565b825b9392505050565b6001600160a01b03821660009081526003602052604081208054839290611728908490611a37565b90915550506002805482900390556040518181526000906001600160a01b03841690600080516020611c10833981519152906020016116dc565b6000610895600160701b6001600160701b038416611baf565b60006116f96001600160701b03831684611be0565b80356001600160a01b038116811461168957600080fd5b6000806000806000608086880312156117bf57600080fd5b85359450602086013593506117d660408701611790565b9250606086013567ffffffffffffffff8111156117f257600080fd5b8601601f8101881361180357600080fd5b803567ffffffffffffffff81111561181a57600080fd5b88602082840101111561182c57600080fd5b959894975092955050506020019190565b60005b83811015611858578181015183820152602001611840565b50506000910152565b602081526000825180602084015261188081604085016020870161183d565b601f01601f19169190910160400192915050565b600080604083850312156118a757600080fd5b6118b083611790565b946020939093013593505050565b6000806000606084860312156118d357600080fd5b6118dc84611790565b92506118ea60208501611790565b929592945050506040919091013590565b6000806040838503121561190e57600080fd5b61191783611790565b915061192560208401611790565b90509250929050565b60006020828403121561194057600080fd5b6116f982611790565b600080600080600080600060e0888a03121561196457600080fd5b61196d88611790565b965061197b60208901611790565b95506040880135945060608801359350608088013560ff8116811461199f57600080fd5b9699959850939692959460a0840135945060c09093013592915050565b60018060a01b038616815284602082015283604082015260806060820152816080820152818360a0830137600081830160a090810191909152601f909201601f19160101949350505050565b600060208284031215611a1a57600080fd5b5051919050565b634e487b7160e01b600052601160045260246000fd5b8181038181111561089557610895611a21565b808202811582820484141761089557610895611a21565b600181811c90821680611a7557607f821691505b60208210810361167957634e487b7160e01b600052602260045260246000fd5b634e487b7160e01b600052601260045260246000fd5b600082611aba57611aba611a95565b500490565b60008251611ad181846020870161183d565b9190910192915050565b600060208284031215611aed57600080fd5b815180151581146116f957600080fd5b6000808354818160011c90506001821680611b1957607f821691505b602082108103611b3757634e487b7160e01b84526022600452602484fd5b808015611b4b5760018114611b6057611b90565b60ff1984168752821515830287019450611b90565b60008881526020902060005b84811015611b8857815489820152600190910190602001611b6c565b505082870194505b50929695505050505050565b8082018082111561089557610895611a21565b6001600160e01b03818116838216818102909216918183048114821517611bd857611bd8611a21565b505092915050565b60006001600160e01b03831680611bf957611bf9611a95565b6001600160e01b0392909216919091049291505056feddf252ad1be2c89b69c2b068fc378daa952ba7f163c4a11628f55a4df523b3efa2646970667358221220e5ad7f4f82edb9d57be7c223e90576585f1f789230d6899b6b55b85eaa8d5f6664736f6c634300081b0033","linkReferences":{}},"methodIdentifiers":{"DOMAIN_SEPARATOR()":"3644e515","allowance(address,address)":"dd62ed3e","approve(address,uint256)":"095ea7b3","balanceOf(address)":"70a08231","burn(address)":"89afcb44","decimals()":"313ce567","getReserves()":"0902f1ac","initialize(address,address)":"485cc955","mint(address)":"6a627842","name()":"06fdde03","nonces(address)":"7ecebe00","permit(address,address,uint256,uint256,uint8,bytes32,bytes32)":"d505accf","price0CumulativeLast()":"5909c0d5","price1CumulativeLast()":"5a3d5493","swap(uint256,uint256,address,bytes)":"022c0d9f","symbol()":"95d89b41","sync()":"fff6cae9","token0()":"0dfe1681","token1()":"d21220a7","totalSupply()":"18160ddd","transfer(address,uint256)":"a9059cbb","transferFrom(address,address,uint256)":"23b872dd"},"id":34}